{
  "_format": "hh-sol-artifact-1",
  "contractName": "WalletContract",
  "sourceName": "contracts/WalletContract.sol",
  "abi": [
    {
      "inputs": [
        {
          "internalType": "address",
          "name": "_kycContract",
          "type": "address"
        }
      ],
      "stateMutability": "nonpayable",
      "type": "constructor"
    },
    {
      "anonymous": false,
      "inputs": [
        {
          "indexed": true,
          "internalType": "address",
          "name": "user",
          "type": "address"
        },
        {
          "indexed": false,
          "internalType": "uint256",
          "name": "amount",
          "type": "uint256"
        }
      ],
      "name": "Deposit",
      "type": "event"
    },
    {
      "anonymous": false,
      "inputs": [
        {
          "indexed": true,
          "internalType": "address",
          "name": "from",
          "type": "address"
        },
        {
          "indexed": true,
          "internalType": "address",
          "name": "to",
          "type": "address"
        },
        {
          "indexed": false,
          "internalType": "uint256",
          "name": "amount",
          "type": "uint256"
        }
      ],
      "name": "Transfer",
      "type": "event"
    },
    {
      "anonymous": false,
      "inputs": [
        {
          "indexed": true,
          "internalType": "address",
          "name": "user",
          "type": "address"
        },
        {
          "indexed": false,
          "internalType": "uint256",
          "name": "amount",
          "type": "uint256"
        }
      ],
      "name": "Withdrawal",
      "type": "event"
    },
    {
      "inputs": [
        {
          "internalType": "address",
          "name": "",
          "type": "address"
        }
      ],
      "name": "balances",
      "outputs": [
        {
          "internalType": "uint256",
          "name": "",
          "type": "uint256"
        }
      ],
      "stateMutability": "view",
      "type": "function"
    },
    {
      "inputs": [
        {
          "internalType": "uint256",
          "name": "amount",
          "type": "uint256"
        }
      ],
      "name": "deposit",
      "outputs": [],
      "stateMutability": "nonpayable",
      "type": "function"
    },
    {
      "inputs": [
        {
          "internalType": "address",
          "name": "user",
          "type": "address"
        }
      ],
      "name": "getBalance",
      "outputs": [
        {
          "internalType": "uint256",
          "name": "",
          "type": "uint256"
        }
      ],
      "stateMutability": "view",
      "type": "function"
    },
    {
      "inputs": [],
      "name": "kycContract",
      "outputs": [
        {
          "internalType": "contract IKYC",
          "name": "",
          "type": "address"
        }
      ],
      "stateMutability": "view",
      "type": "function"
    },
    {
      "inputs": [
        {
          "internalType": "address",
          "name": "_txManager",
          "type": "address"
        }
      ],
      "name": "setTxManager",
      "outputs": [],
      "stateMutability": "nonpayable",
      "type": "function"
    },
    {
      "inputs": [
        {
          "internalType": "address",
          "name": "recipient",
          "type": "address"
        },
        {
          "internalType": "uint256",
          "name": "amount",
          "type": "uint256"
        }
      ],
      "name": "transfer",
      "outputs": [],
      "stateMutability": "nonpayable",
      "type": "function"
    },
    {
      "inputs": [
        {
          "internalType": "address",
          "name": "sender",
          "type": "address"
        },
        {
          "internalType": "address",
          "name": "recipient",
          "type": "address"
        },
        {
          "internalType": "uint256",
          "name": "amount",
          "type": "uint256"
        }
      ],
      "name": "transferFrom",
      "outputs": [],
      "stateMutability": "nonpayable",
      "type": "function"
    },
    {
      "inputs": [],
      "name": "txManager",
      "outputs": [
        {
          "internalType": "address",
          "name": "",
          "type": "address"
        }
      ],
      "stateMutability": "view",
      "type": "function"
    },
    {
      "inputs": [
        {
          "internalType": "uint256",
          "name": "amount",
          "type": "uint256"
        }
      ],
      "name": "withdraw",
      "outputs": [],
      "stateMutability": "nonpayable",
      "type": "function"
    }
  ],
  "bytecode": "0x6080604052348015600f57600080fd5b50604051610cfe380380610cfe833981016040819052602c916050565b600080546001600160a01b0319166001600160a01b0392909216919091179055607e565b600060208284031215606157600080fd5b81516001600160a01b0381168114607757600080fd5b9392505050565b610c718061008d6000396000f3fe608060405234801561001057600080fd5b50600436106100935760003560e01c80637139977511610066578063713997751461011e578063a9059cbb14610131578063b6b55f2514610144578063f5fa73d614610157578063f8b2cb4f1461016a57600080fd5b806323b872dd1461009857806327e235e3146100ad5780632e1a7d4d146100e05780636d3123eb146100f3575b600080fd5b6100ab6100a6366004610ab9565b610193565b005b6100cd6100bb366004610af6565b60026020526000908152604090205481565b6040519081526020015b60405180910390f35b6100ab6100ee366004610b18565b610540565b600054610106906001600160a01b031681565b6040516001600160a01b0390911681526020016100d7565b6100ab61012c366004610af6565b610674565b6100ab61013f366004610b31565b61072f565b6100ab610152366004610b18565b61099f565b600154610106906001600160a01b031681565b6100cd610178366004610af6565b6001600160a01b031660009081526002602052604090205490565b82336001600160a01b038216148015610215575060005460405163026c098960e51b81526001600160a01b03838116600483015290911690634d81312090602401602060405180830381865afa1580156101f1573d6000803e3d6000fd5b505050506040513d601f19601f820116820180604052508101906102159190610b5b565b8061022a57506001546001600160a01b031633145b61027b5760405162461bcd60e51b815260206004820152601c60248201527f4b5943207265717569726564206f7220756e617574686f72697a65640000000060448201526064015b60405180910390fd5b6001600160a01b0383166102c55760405162461bcd60e51b8152602060048201526011602482015270125b9d985b1a59081c9958da5c1a595b9d607a1b6044820152606401610272565b600082116102e55760405162461bcd60e51b815260040161027290610b7d565b6001600160a01b03841660009081526002602052604090205482111561031d5760405162461bcd60e51b815260040161027290610ba5565b60005460405163026c098960e51b81526001600160a01b03868116600483015290911690634d81312090602401602060405180830381865afa158015610367573d6000803e3d6000fd5b505050506040513d601f19601f8201168201806040525081019061038b9190610b5b565b6103d75760405162461bcd60e51b815260206004820152601760248201527f53656e646572206e6f74204b59432076657269666965640000000000000000006044820152606401610272565b60005460405163026c098960e51b81526001600160a01b03858116600483015290911690634d81312090602401602060405180830381865afa158015610421573d6000803e3d6000fd5b505050506040513d601f19601f820116820180604052508101906104459190610b5b565b6104915760405162461bcd60e51b815260206004820152601a60248201527f526563697069656e74206e6f74204b59432076657269666965640000000000006044820152606401610272565b6001600160a01b038416600090815260026020526040812080548492906104b9908490610be9565b90915550506001600160a01b038316600090815260026020526040812080548492906104e6908490610c02565b92505081905550826001600160a01b0316846001600160a01b03167fddf252ad1be2c89b69c2b068fc378daa952ba7f163c4a11628f55a4df523b3ef8460405161053291815260200190565b60405180910390a350505050565b60005460405163026c098960e51b81523360048201526001600160a01b0390911690634d81312090602401602060405180830381865afa158015610588573d6000803e3d6000fd5b505050506040513d601f19601f820116820180604052508101906105ac9190610b5b565b6105c85760405162461bcd60e51b815260040161027290610c15565b600081116105e85760405162461bcd60e51b815260040161027290610b7d565b336000908152600260205260409020548111156106175760405162461bcd60e51b815260040161027290610ba5565b3360009081526002602052604081208054839290610636908490610be9565b909155505060405181815233907f7fcf532c15f0a6db0bd6d0e038bea71d30d808c7d98cb3bf7268a95bf5081b65906020015b60405180910390a250565b6001546001600160a01b0316156106c55760405162461bcd60e51b8152602060048201526015602482015274151e13585b9859d95c88185b1c9958591e481cd95d605a1b6044820152606401610272565b6001600160a01b03811661070d5760405162461bcd60e51b815260206004820152600f60248201526e496e76616c6964206164647265737360881b6044820152606401610272565b600180546001600160a01b0319166001600160a01b0392909216919091179055565b60005460405163026c098960e51b81523360048201526001600160a01b0390911690634d81312090602401602060405180830381865afa158015610777573d6000803e3d6000fd5b505050506040513d601f19601f8201168201806040525081019061079b9190610b5b565b6107b75760405162461bcd60e51b815260040161027290610c15565b6001600160a01b0382166108015760405162461bcd60e51b8152602060048201526011602482015270125b9d985b1a59081c9958da5c1a595b9d607a1b6044820152606401610272565b600081116108215760405162461bcd60e51b815260040161027290610b7d565b336000908152600260205260409020548111156108505760405162461bcd60e51b815260040161027290610ba5565b60005460405163026c098960e51b81526001600160a01b03848116600483015290911690634d81312090602401602060405180830381865afa15801561089a573d6000803e3d6000fd5b505050506040513d601f19601f820116820180604052508101906108be9190610b5b565b61090a5760405162461bcd60e51b815260206004820152601a60248201527f526563697069656e74206e6f74204b59432076657269666965640000000000006044820152606401610272565b3360009081526002602052604081208054839290610929908490610be9565b90915550506001600160a01b03821660009081526002602052604081208054839290610956908490610c02565b90915550506040518181526001600160a01b0383169033907fddf252ad1be2c89b69c2b068fc378daa952ba7f163c4a11628f55a4df523b3ef9060200160405180910390a35050565b60005460405163026c098960e51b81523360048201526001600160a01b0390911690634d81312090602401602060405180830381865afa1580156109e7573d6000803e3d6000fd5b505050506040513d601f19601f82011682018060405250810190610a0b9190610b5b565b610a275760405162461bcd60e51b815260040161027290610c15565b60008111610a475760405162461bcd60e51b815260040161027290610b7d565b3360009081526002602052604081208054839290610a66908490610c02565b909155505060405181815233907fe1fffcc4923d04b559f4d29a8bfc6cda04eb5b0d3c460751c2402c5c5cc9109c90602001610669565b80356001600160a01b0381168114610ab457600080fd5b919050565b600080600060608486031215610ace57600080fd5b610ad784610a9d565b9250610ae560208501610a9d565b929592945050506040919091013590565b600060208284031215610b0857600080fd5b610b1182610a9d565b9392505050565b600060208284031215610b2a57600080fd5b5035919050565b60008060408385031215610b4457600080fd5b610b4d83610a9d565b946020939093013593505050565b600060208284031215610b6d57600080fd5b81518015158114610b1157600080fd5b6020808252600e908201526d125b9d985b1a5908185b5bdd5b9d60921b604082015260600190565b602080825260149082015273496e73756666696369656e742062616c616e636560601b604082015260600190565b634e487b7160e01b600052601160045260246000fd5b81810381811115610bfc57610bfc610bd3565b92915050565b80820180821115610bfc57610bfc610bd3565b6020808252600c908201526b12d650c81c995c5d5a5c995960a21b60408201526060019056fea264697066735822122041847865c4bfa95540f4e75e8170a184de769db93ca3b90a7e8d16ec28d8cec864736f6c634300081c0033",
  "linkReferences": {},
  "deployedLinkReferences": {}
}