{
  "_format": "hh-sol-artifact-1",
  "contractName": "WalletContract",
  "sourceName": "contracts/WalletContract.sol",
  "abi": [
    {
      "inputs": [
        {
          "internalType": "address",
          "name": "_kycContract",
          "type": "address"
        }
      ],
      "stateMutability": "nonpayable",
      "type": "constructor"
    },
    {
      "anonymous": false,
      "inputs": [
        {
          "indexed": true,
          "internalType": "address",
          "name": "user",
          "type": "address"
        },
        {
          "indexed": false,
          "internalType": "uint256",
          "name": "amount",
          "type": "uint256"
        }
      ],
      "name": "Deposit",
      "type": "event"
    },
    {
      "anonymous": false,
      "inputs": [
        {
          "indexed": true,
          "internalType": "address",
          "name": "from",
          "type": "address"
        },
        {
          "indexed": true,
          "internalType": "address",
          "name": "to",
          "type": "address"
        },
        {
          "indexed": false,
          "internalType": "uint256",
          "name": "amount",
          "type": "uint256"
        }
      ],
      "name": "Transfer",
      "type": "event"
    },
    {
      "anonymous": false,
      "inputs": [
        {
          "indexed": true,
          "internalType": "address",
          "name": "user",
          "type": "address"
        },
        {
          "indexed": false,
          "internalType": "uint256",
          "name": "amount",
          "type": "uint256"
        }
      ],
      "name": "Withdrawal",
      "type": "event"
    },
    {
      "inputs": [
        {
          "internalType": "address",
          "name": "",
          "type": "address"
        }
      ],
      "name": "balances",
      "outputs": [
        {
          "internalType": "uint256",
          "name": "",
          "type": "uint256"
        }
      ],
      "stateMutability": "view",
      "type": "function"
    },
    {
      "inputs": [
        {
          "internalType": "uint256",
          "name": "amount",
          "type": "uint256"
        }
      ],
      "name": "deposit",
      "outputs": [],
      "stateMutability": "nonpayable",
      "type": "function"
    },
    {
      "inputs": [
        {
          "internalType": "address",
          "name": "user",
          "type": "address"
        }
      ],
      "name": "getBalance",
      "outputs": [
        {
          "internalType": "uint256",
          "name": "",
          "type": "uint256"
        }
      ],
      "stateMutability": "view",
      "type": "function"
    },
    {
      "inputs": [],
      "name": "kycContract",
      "outputs": [
        {
          "internalType": "contract IKYC",
          "name": "",
          "type": "address"
        }
      ],
      "stateMutability": "view",
      "type": "function"
    },
    {
      "inputs": [
        {
          "internalType": "address",
          "name": "recipient",
          "type": "address"
        },
        {
          "internalType": "uint256",
          "name": "amount",
          "type": "uint256"
        }
      ],
      "name": "transfer",
      "outputs": [],
      "stateMutability": "nonpayable",
      "type": "function"
    },
    {
      "inputs": [
        {
          "internalType": "uint256",
          "name": "amount",
          "type": "uint256"
        }
      ],
      "name": "withdraw",
      "outputs": [],
      "stateMutability": "nonpayable",
      "type": "function"
    }
  ],
  "bytecode": "0x6080604052348015600f57600080fd5b50604051610818380380610818833981016040819052602c916050565b600080546001600160a01b0319166001600160a01b0392909216919091179055607e565b600060208284031215606157600080fd5b81516001600160a01b0381168114607757600080fd5b9392505050565b61078b8061008d6000396000f3fe608060405234801561001057600080fd5b50600436106100625760003560e01c806327e235e3146100675780632e1a7d4d1461009a5780636d3123eb146100af578063a9059cbb146100da578063b6b55f25146100ed578063f8b2cb4f14610100575b600080fd5b61008761007536600461063e565b60016020526000908152604090205481565b6040519081526020015b60405180910390f35b6100ad6100a8366004610660565b610129565b005b6000546100c2906001600160a01b031681565b6040516001600160a01b039091168152602001610091565b6100ad6100e8366004610679565b61028d565b6100ad6100fb366004610660565b610524565b61008761010e36600461063e565b6001600160a01b031660009081526001602052604090205490565b60005460405163026c098960e51b81523360048201526001600160a01b0390911690634d81312090602401602060405180830381865afa158015610171573d6000803e3d6000fd5b505050506040513d601f19601f8201168201806040525081019061019591906106a3565b6101ba5760405162461bcd60e51b81526004016101b1906106c5565b60405180910390fd5b600081116101da5760405162461bcd60e51b81526004016101b1906106eb565b336000908152600160205260409020548111156102305760405162461bcd60e51b8152602060048201526014602482015273496e73756666696369656e742062616c616e636560601b60448201526064016101b1565b336000908152600160205260408120805483929061024f908490610729565b909155505060405181815233907f7fcf532c15f0a6db0bd6d0e038bea71d30d808c7d98cb3bf7268a95bf5081b65906020015b60405180910390a250565b60005460405163026c098960e51b81523360048201526001600160a01b0390911690634d81312090602401602060405180830381865afa1580156102d5573d6000803e3d6000fd5b505050506040513d601f19601f820116820180604052508101906102f991906106a3565b6103155760405162461bcd60e51b81526004016101b1906106c5565b6001600160a01b03821661035f5760405162461bcd60e51b8152602060048201526011602482015270125b9d985b1a59081c9958da5c1a595b9d607a1b60448201526064016101b1565b6000811161037f5760405162461bcd60e51b81526004016101b1906106eb565b336000908152600160205260409020548111156103d55760405162461bcd60e51b8152602060048201526014602482015273496e73756666696369656e742062616c616e636560601b60448201526064016101b1565b60005460405163026c098960e51b81526001600160a01b03848116600483015290911690634d81312090602401602060405180830381865afa15801561041f573d6000803e3d6000fd5b505050506040513d601f19601f8201168201806040525081019061044391906106a3565b61048f5760405162461bcd60e51b815260206004820152601a60248201527f526563697069656e74206e6f74204b594320766572696669656400000000000060448201526064016101b1565b33600090815260016020526040812080548392906104ae908490610729565b90915550506001600160a01b038216600090815260016020526040812080548392906104db908490610742565b90915550506040518181526001600160a01b0383169033907fddf252ad1be2c89b69c2b068fc378daa952ba7f163c4a11628f55a4df523b3ef9060200160405180910390a35050565b60005460405163026c098960e51b81523360048201526001600160a01b0390911690634d81312090602401602060405180830381865afa15801561056c573d6000803e3d6000fd5b505050506040513d601f19601f8201168201806040525081019061059091906106a3565b6105ac5760405162461bcd60e51b81526004016101b1906106c5565b600081116105cc5760405162461bcd60e51b81526004016101b1906106eb565b33600090815260016020526040812080548392906105eb908490610742565b909155505060405181815233907fe1fffcc4923d04b559f4d29a8bfc6cda04eb5b0d3c460751c2402c5c5cc9109c90602001610282565b80356001600160a01b038116811461063957600080fd5b919050565b60006020828403121561065057600080fd5b61065982610622565b9392505050565b60006020828403121561067257600080fd5b5035919050565b6000806040838503121561068c57600080fd5b61069583610622565b946020939093013593505050565b6000602082840312156106b557600080fd5b8151801515811461065957600080fd5b6020808252600c908201526b12d650c81c995c5d5a5c995960a21b604082015260600190565b6020808252600e908201526d125b9d985b1a5908185b5bdd5b9d60921b604082015260600190565b634e487b7160e01b600052601160045260246000fd5b8181038181111561073c5761073c610713565b92915050565b8082018082111561073c5761073c61071356fea264697066735822122074f4bf138af8e8c7c6cc240b950de0547c2b838fcfbda01605256096e98dada364736f6c634300081c0033",
  "linkReferences": {},
  "deployedLinkReferences": {}
}