{
  "_format": "hh-sol-artifact-1",
  "contractName": "TransactionManager",
  "sourceName": "contracts/TransactionManager.sol",
  "abi": [
    {
      "inputs": [
        {
          "internalType": "address",
          "name": "_walletContract",
          "type": "address"
        },
        {
          "internalType": "address",
          "name": "_agentContract",
          "type": "address"
        },
        {
          "internalType": "address",
          "name": "_kycContract",
          "type": "address"
        }
      ],
      "stateMutability": "nonpayable",
      "type": "constructor"
    },
    {
      "anonymous": false,
      "inputs": [
        {
          "indexed": true,
          "internalType": "uint256",
          "name": "txId",
          "type": "uint256"
        },
        {
          "indexed": true,
          "internalType": "address",
          "name": "sender",
          "type": "address"
        },
        {
          "indexed": true,
          "internalType": "address",
          "name": "recipient",
          "type": "address"
        },
        {
          "indexed": false,
          "internalType": "uint256",
          "name": "amount",
          "type": "uint256"
        },
        {
          "indexed": false,
          "internalType": "string",
          "name": "transactionType",
          "type": "string"
        }
      ],
      "name": "TransactionLogged",
      "type": "event"
    },
    {
      "inputs": [],
      "name": "agentContract",
      "outputs": [
        {
          "internalType": "contract AgentServicesContract",
          "name": "",
          "type": "address"
        }
      ],
      "stateMutability": "view",
      "type": "function"
    },
    {
      "inputs": [
        {
          "internalType": "address",
          "name": "recipient",
          "type": "address"
        },
        {
          "internalType": "uint256",
          "name": "amount",
          "type": "uint256"
        }
      ],
      "name": "executeP2PTransfer",
      "outputs": [],
      "stateMutability": "nonpayable",
      "type": "function"
    },
    {
      "inputs": [
        {
          "internalType": "uint256",
          "name": "amount",
          "type": "uint256"
        },
        {
          "internalType": "address",
          "name": "agent",
          "type": "address"
        }
      ],
      "name": "executeWithdrawal",
      "outputs": [],
      "stateMutability": "nonpayable",
      "type": "function"
    },
    {
      "inputs": [
        {
          "internalType": "uint256",
          "name": "txId",
          "type": "uint256"
        }
      ],
      "name": "getTransaction",
      "outputs": [
        {
          "components": [
            {
              "internalType": "address",
              "name": "sender",
              "type": "address"
            },
            {
              "internalType": "address",
              "name": "recipient",
              "type": "address"
            },
            {
              "internalType": "uint256",
              "name": "amount",
              "type": "uint256"
            },
            {
              "internalType": "string",
              "name": "transactionType",
              "type": "string"
            },
            {
              "internalType": "uint256",
              "name": "timestamp",
              "type": "uint256"
            }
          ],
          "internalType": "struct TransactionManager.Transaction",
          "name": "",
          "type": "tuple"
        }
      ],
      "stateMutability": "view",
      "type": "function"
    },
    {
      "inputs": [
        {
          "internalType": "address",
          "name": "user",
          "type": "address"
        }
      ],
      "name": "getUserTransactions",
      "outputs": [
        {
          "internalType": "uint256[]",
          "name": "",
          "type": "uint256[]"
        }
      ],
      "stateMutability": "view",
      "type": "function"
    },
    {
      "inputs": [],
      "name": "kycContract",
      "outputs": [
        {
          "internalType": "contract IKYC",
          "name": "",
          "type": "address"
        }
      ],
      "stateMutability": "view",
      "type": "function"
    },
    {
      "inputs": [
        {
          "internalType": "address",
          "name": "sender",
          "type": "address"
        },
        {
          "internalType": "address",
          "name": "recipient",
          "type": "address"
        },
        {
          "internalType": "uint256",
          "name": "amount",
          "type": "uint256"
        },
        {
          "internalType": "string",
          "name": "transactionType",
          "type": "string"
        }
      ],
      "name": "logTransaction",
      "outputs": [],
      "stateMutability": "nonpayable",
      "type": "function"
    },
    {
      "inputs": [
        {
          "internalType": "uint256",
          "name": "",
          "type": "uint256"
        }
      ],
      "name": "transactions",
      "outputs": [
        {
          "internalType": "address",
          "name": "sender",
          "type": "address"
        },
        {
          "internalType": "address",
          "name": "recipient",
          "type": "address"
        },
        {
          "internalType": "uint256",
          "name": "amount",
          "type": "uint256"
        },
        {
          "internalType": "string",
          "name": "transactionType",
          "type": "string"
        },
        {
          "internalType": "uint256",
          "name": "timestamp",
          "type": "uint256"
        }
      ],
      "stateMutability": "view",
      "type": "function"
    },
    {
      "inputs": [
        {
          "internalType": "address",
          "name": "",
          "type": "address"
        },
        {
          "internalType": "uint256",
          "name": "",
          "type": "uint256"
        }
      ],
      "name": "userTransactions",
      "outputs": [
        {
          "internalType": "uint256",
          "name": "",
          "type": "uint256"
        }
      ],
      "stateMutability": "view",
      "type": "function"
    },
    {
      "inputs": [],
      "name": "walletContract",
      "outputs": [
        {
          "internalType": "contract WalletContract",
          "name": "",
          "type": "address"
        }
      ],
      "stateMutability": "view",
      "type": "function"
    }
  ],
  "bytecode": "0x6080604052348015600f57600080fd5b50604051610ff6380380610ff6833981016040819052602c916088565b600080546001600160a01b039485166001600160a01b03199182161790915560018054938516938216939093179092556002805491909316911617905560c4565b80516001600160a01b0381168114608357600080fd5b919050565b600080600060608486031215609c57600080fd5b60a384606d565b925060af60208501606d565b915060bb60408501606d565b90509250925092565b610f23806100d36000396000f3fe608060405234801561001057600080fd5b506004361061009e5760003560e01c8063b842ec4411610066578063b842ec4414610143578063d000955814610164578063d0ed5c2f14610177578063ef9253991461018a578063f7de3f7a146101aa57600080fd5b80630cb3408d146100a357806333ea3dc8146100b85780636d3123eb146100e15780639ace38c21461010c5780639e5182ab14610130575b600080fd5b6100b66100b1366004610a93565b6101bd565b005b6100cb6100c6366004610abd565b6103ce565b6040516100d89190610b1c565b60405180910390f35b6002546100f4906001600160a01b031681565b6040516001600160a01b0390911681526020016100d8565b61011f61011a366004610abd565b610542565b6040516100d8959493929190610b7c565b6001546100f4906001600160a01b031681565b610156610151366004610a93565b61061c565b6040519081526020016100d8565b6100b6610172366004610bd7565b61064d565b6000546100f4906001600160a01b031681565b61019d610198366004610cbb565b61081f565b6040516100d89190610cdd565b6100b66101b8366004610d20565b61088b565b60025460405163026c098960e51b81523360048201526001600160a01b0390911690634d81312090602401602060405180830381865afa158015610205573d6000803e3d6000fd5b505050506040513d601f19601f820116820180604052508101906102299190610d4c565b61027a5760405162461bcd60e51b815260206004820152601760248201527f53656e646572206e6f74204b594320766572696669656400000000000000000060448201526064015b60405180910390fd5b60025460405163026c098960e51b81526001600160a01b03848116600483015290911690634d81312090602401602060405180830381865afa1580156102c4573d6000803e3d6000fd5b505050506040513d601f19601f820116820180604052508101906102e89190610d4c565b6103345760405162461bcd60e51b815260206004820152601a60248201527f526563697069656e74206e6f74204b59432076657269666965640000000000006044820152606401610271565b60005460405163a9059cbb60e01b81526001600160a01b038481166004830152602482018490529091169063a9059cbb90604401600060405180830381600087803b15801561038257600080fd5b505af1158015610396573d6000803e3d6000fd5b505050506103ca3383836040518060400160405280600c81526020016b2819282faa2920a729a322a960a11b81525061064d565b5050565b6040805160a081018252600080825260208201819052918101829052606080820152608081019190915260035482106104425760405162461bcd60e51b8152602060048201526016602482015275125b9d985b1a59081d1c985b9cd858dd1a5bdb88125160521b6044820152606401610271565b6003828154811061045557610455610d6e565b60009182526020918290206040805160a081018252600590930290910180546001600160a01b039081168452600182015416938301939093526002830154908201526003820180549192916060840191906104af90610d84565b80601f01602080910402602001604051908101604052809291908181526020018280546104db90610d84565b80156105285780601f106104fd57610100808354040283529160200191610528565b820191906000526020600020905b81548152906001019060200180831161050b57829003601f168201915b505050505081526020016004820154815250509050919050565b6003818154811061055257600080fd5b600091825260209091206005909102018054600182015460028301546003840180546001600160a01b03948516965092909316939092909161059390610d84565b80601f01602080910402602001604051908101604052809291908181526020018280546105bf90610d84565b801561060c5780601f106105e15761010080835404028352916020019161060c565b820191906000526020600020905b8154815290600101906020018083116105ef57829003601f168201915b5050505050908060040154905085565b6004602052816000526040600020818154811061063857600080fd5b90600052602060002001600091509150505481565b600380546040805160a0810182526001600160a01b03808916825287811660208301908152928201878152606083018781524260808501526001860187556000969096528251600586027fc2575a0e9e593c00f959f8c92f12db2869c3395a3b0502d05e2516446f71f85b810180549285166001600160a01b031993841617815595517fc2575a0e9e593c00f959f8c92f12db2869c3395a3b0502d05e2516446f71f85c8201805491909516921691909117909255517fc2575a0e9e593c00f959f8c92f12db2869c3395a3b0502d05e2516446f71f85d8201559351929390927fc2575a0e9e593c00f959f8c92f12db2869c3395a3b0502d05e2516446f71f85e9091019061075c9082610e0d565b50608091909101516004918201556001600160a01b03808716600081815260209384526040812080546001810182559082529390209092018390558516146107ca576001600160a01b0384166000908152600460209081526040822080546001810182559083529120018190555b836001600160a01b0316856001600160a01b0316827fd51b6494aabf47a93cb3b5a5d47b61dd5230a83f7cb254851dff3e7fa3917a1b8686604051610810929190610ecc565b60405180910390a45050505050565b6001600160a01b03811660009081526004602090815260409182902080548351818402810184019094528084526060939283018282801561087f57602002820191906000526020600020905b81548152602001906001019080831161086b575b50505050509050919050565b60025460405163026c098960e51b81523360048201526001600160a01b0390911690634d81312090602401602060405180830381865afa1580156108d3573d6000803e3d6000fd5b505050506040513d601f19601f820116820180604052508101906108f79190610d4c565b61093b5760405162461bcd60e51b8152602060048201526015602482015274155cd95c881b9bdd0812d650c81d995c9a599a5959605a1b6044820152606401610271565b600154604051631d3ba0bf60e21b81526001600160a01b038381166004830152909116906374ee82fc90602401602060405180830381865afa158015610985573d6000803e3d6000fd5b505050506040513d601f19601f820116820180604052508101906109a99190610d4c565b6109e55760405162461bcd60e51b815260206004820152600d60248201526c125b9d985b1a59081859d95b9d609a1b6044820152606401610271565b600154604051632098244360e21b8152336004820152602481018490526001600160a01b0390911690638260910c90604401600060405180830381600087803b158015610a3157600080fd5b505af1158015610a45573d6000803e3d6000fd5b505050506103ca3382846040518060400160405280600a81526020016915d2551211149055d05360b21b81525061064d565b80356001600160a01b0381168114610a8e57600080fd5b919050565b60008060408385031215610aa657600080fd5b610aaf83610a77565b946020939093013593505050565b600060208284031215610acf57600080fd5b5035919050565b6000815180845260005b81811015610afc57602081850181015186830182015201610ae0565b506000602082860101526020601f19601f83011685010191505092915050565b6020815260018060a01b03825116602082015260018060a01b036020830151166040820152604082015160608201526000606083015160a06080840152610b6660c0840182610ad6565b9050608084015160a08401528091505092915050565b6001600160a01b038681168252851660208201526040810184905260a060608201819052600090610baf90830185610ad6565b90508260808301529695505050505050565b634e487b7160e01b600052604160045260246000fd5b60008060008060808587031215610bed57600080fd5b610bf685610a77565b9350610c0460208601610a77565b925060408501359150606085013567ffffffffffffffff811115610c2757600080fd5b8501601f81018713610c3857600080fd5b803567ffffffffffffffff811115610c5257610c52610bc1565b604051601f8201601f19908116603f0116810167ffffffffffffffff81118282101715610c8157610c81610bc1565b604052818152828201602001891015610c9957600080fd5b8160208401602083013760006020838301015280935050505092959194509250565b600060208284031215610ccd57600080fd5b610cd682610a77565b9392505050565b602080825282518282018190526000918401906040840190835b81811015610d15578351835260209384019390920191600101610cf7565b509095945050505050565b60008060408385031215610d3357600080fd5b82359150610d4360208401610a77565b90509250929050565b600060208284031215610d5e57600080fd5b81518015158114610cd657600080fd5b634e487b7160e01b600052603260045260246000fd5b600181811c90821680610d9857607f821691505b602082108103610db857634e487b7160e01b600052602260045260246000fd5b50919050565b601f821115610e0857806000526020600020601f840160051c81016020851015610de55750805b601f840160051c820191505b81811015610e055760008155600101610df1565b50505b505050565b815167ffffffffffffffff811115610e2757610e27610bc1565b610e3b81610e358454610d84565b84610dbe565b6020601f821160018114610e6f5760008315610e575750848201515b600019600385901b1c1916600184901b178455610e05565b600084815260208120601f198516915b82811015610e9f5787850151825560209485019460019092019101610e7f565b5084821015610ebd5786840151600019600387901b60f8161c191681555b50505050600190811b01905550565b828152604060208201526000610ee56040830184610ad6565b94935050505056fea2646970667358221220382f7b6ee4b8dcf5e5cee83fe21acb9a95f7f6cf83c97cab60a05a13b4c1e0a964736f6c634300081c0033",
  "linkReferences": {},
  "deployedLinkReferences": {}
}