{
  "_format": "hh-sol-artifact-1",
  "contractName": "TransactionManager",
  "sourceName": "contracts/TransactionManager.sol",
  "abi": [
    {
      "inputs": [
        {
          "internalType": "address",
          "name": "_walletContract",
          "type": "address"
        },
        {
          "internalType": "address",
          "name": "_agentContract",
          "type": "address"
        },
        {
          "internalType": "address",
          "name": "_kycContract",
          "type": "address"
        }
      ],
      "stateMutability": "nonpayable",
      "type": "constructor"
    },
    {
      "anonymous": false,
      "inputs": [
        {
          "indexed": true,
          "internalType": "uint256",
          "name": "txId",
          "type": "uint256"
        },
        {
          "indexed": true,
          "internalType": "address",
          "name": "sender",
          "type": "address"
        },
        {
          "indexed": true,
          "internalType": "address",
          "name": "recipient",
          "type": "address"
        },
        {
          "indexed": false,
          "internalType": "uint256",
          "name": "amount",
          "type": "uint256"
        },
        {
          "indexed": false,
          "internalType": "string",
          "name": "transactionType",
          "type": "string"
        }
      ],
      "name": "TransactionLogged",
      "type": "event"
    },
    {
      "inputs": [],
      "name": "agentContract",
      "outputs": [
        {
          "internalType": "contract AgentServicesContract",
          "name": "",
          "type": "address"
        }
      ],
      "stateMutability": "view",
      "type": "function"
    },
    {
      "inputs": [
        {
          "internalType": "address",
          "name": "recipient",
          "type": "address"
        },
        {
          "internalType": "uint256",
          "name": "amount",
          "type": "uint256"
        }
      ],
      "name": "executeP2PTransfer",
      "outputs": [],
      "stateMutability": "nonpayable",
      "type": "function"
    },
    {
      "inputs": [
        {
          "internalType": "uint256",
          "name": "amount",
          "type": "uint256"
        },
        {
          "internalType": "address",
          "name": "agent",
          "type": "address"
        }
      ],
      "name": "executeWithdrawal",
      "outputs": [],
      "stateMutability": "nonpayable",
      "type": "function"
    },
    {
      "inputs": [
        {
          "internalType": "uint256",
          "name": "txId",
          "type": "uint256"
        }
      ],
      "name": "getTransaction",
      "outputs": [
        {
          "components": [
            {
              "internalType": "address",
              "name": "sender",
              "type": "address"
            },
            {
              "internalType": "address",
              "name": "recipient",
              "type": "address"
            },
            {
              "internalType": "uint256",
              "name": "amount",
              "type": "uint256"
            },
            {
              "internalType": "string",
              "name": "transactionType",
              "type": "string"
            },
            {
              "internalType": "uint256",
              "name": "timestamp",
              "type": "uint256"
            }
          ],
          "internalType": "struct TransactionManager.Transaction",
          "name": "",
          "type": "tuple"
        }
      ],
      "stateMutability": "view",
      "type": "function"
    },
    {
      "inputs": [
        {
          "internalType": "address",
          "name": "user",
          "type": "address"
        }
      ],
      "name": "getUserTransactions",
      "outputs": [
        {
          "internalType": "uint256[]",
          "name": "",
          "type": "uint256[]"
        }
      ],
      "stateMutability": "view",
      "type": "function"
    },
    {
      "inputs": [],
      "name": "kycContract",
      "outputs": [
        {
          "internalType": "contract IKYC",
          "name": "",
          "type": "address"
        }
      ],
      "stateMutability": "view",
      "type": "function"
    },
    {
      "inputs": [
        {
          "internalType": "address",
          "name": "sender",
          "type": "address"
        },
        {
          "internalType": "address",
          "name": "recipient",
          "type": "address"
        },
        {
          "internalType": "uint256",
          "name": "amount",
          "type": "uint256"
        },
        {
          "internalType": "string",
          "name": "transactionType",
          "type": "string"
        }
      ],
      "name": "logTransaction",
      "outputs": [],
      "stateMutability": "nonpayable",
      "type": "function"
    },
    {
      "inputs": [
        {
          "internalType": "uint256",
          "name": "",
          "type": "uint256"
        }
      ],
      "name": "transactions",
      "outputs": [
        {
          "internalType": "address",
          "name": "sender",
          "type": "address"
        },
        {
          "internalType": "address",
          "name": "recipient",
          "type": "address"
        },
        {
          "internalType": "uint256",
          "name": "amount",
          "type": "uint256"
        },
        {
          "internalType": "string",
          "name": "transactionType",
          "type": "string"
        },
        {
          "internalType": "uint256",
          "name": "timestamp",
          "type": "uint256"
        }
      ],
      "stateMutability": "view",
      "type": "function"
    },
    {
      "inputs": [
        {
          "internalType": "address",
          "name": "",
          "type": "address"
        },
        {
          "internalType": "uint256",
          "name": "",
          "type": "uint256"
        }
      ],
      "name": "userTransactions",
      "outputs": [
        {
          "internalType": "uint256",
          "name": "",
          "type": "uint256"
        }
      ],
      "stateMutability": "view",
      "type": "function"
    },
    {
      "inputs": [],
      "name": "walletContract",
      "outputs": [
        {
          "internalType": "contract WalletContract",
          "name": "",
          "type": "address"
        }
      ],
      "stateMutability": "view",
      "type": "function"
    }
  ],
  "bytecode": "0x6080604052348015600f57600080fd5b50604051611151380380611151833981016040819052602c916088565b600080546001600160a01b039485166001600160a01b03199182161790915560018054938516938216939093179092556002805491909316911617905560c4565b80516001600160a01b0381168114608357600080fd5b919050565b600080600060608486031215609c57600080fd5b60a384606d565b925060af60208501606d565b915060bb60408501606d565b90509250925092565b61107e806100d36000396000f3fe608060405234801561001057600080fd5b506004361061009e5760003560e01c8063b842ec4411610066578063b842ec4414610143578063d000955814610164578063d0ed5c2f14610177578063ef9253991461018a578063f7de3f7a146101aa57600080fd5b80630cb3408d146100a357806333ea3dc8146100b85780636d3123eb146100e15780639ace38c21461010c5780639e5182ab14610130575b600080fd5b6100b66100b1366004610bd5565b6101bd565b005b6100cb6100c6366004610bff565b610510565b6040516100d89190610c5e565b60405180910390f35b6002546100f4906001600160a01b031681565b6040516001600160a01b0390911681526020016100d8565b61011f61011a366004610bff565b610684565b6040516100d8959493929190610cbe565b6001546100f4906001600160a01b031681565b610156610151366004610bd5565b61075e565b6040519081526020016100d8565b6100b6610172366004610d19565b61078f565b6000546100f4906001600160a01b031681565b61019d610198366004610dfd565b610961565b6040516100d89190610e1f565b6100b66101b8366004610e62565b6109cd565b60025460405163026c098960e51b81523360048201526001600160a01b0390911690634d81312090602401602060405180830381865afa158015610205573d6000803e3d6000fd5b505050506040513d601f19601f820116820180604052508101906102299190610e8e565b61027a5760405162461bcd60e51b815260206004820152601760248201527f53656e646572206e6f74204b594320766572696669656400000000000000000060448201526064015b60405180910390fd5b60025460405163026c098960e51b81526001600160a01b03848116600483015290911690634d81312090602401602060405180830381865afa1580156102c4573d6000803e3d6000fd5b505050506040513d601f19601f820116820180604052508101906102e89190610e8e565b6103345760405162461bcd60e51b815260206004820152601a60248201527f526563697069656e74206e6f74204b59432076657269666965640000000000006044820152606401610271565b6001600160a01b03821661037e5760405162461bcd60e51b8152602060048201526011602482015270125b9d985b1a59081c9958da5c1a595b9d607a1b6044820152606401610271565b600081116103bf5760405162461bcd60e51b815260206004820152600e60248201526d125b9d985b1a5908185b5bdd5b9d60921b6044820152606401610271565b60005460405163f8b2cb4f60e01b815233600482015282916001600160a01b03169063f8b2cb4f90602401602060405180830381865afa158015610407573d6000803e3d6000fd5b505050506040513d601f19601f8201168201806040525081019061042b9190610eb0565b10156104705760405162461bcd60e51b8152602060048201526014602482015273496e73756666696369656e742062616c616e636560601b6044820152606401610271565b6000546040516323b872dd60e01b81523360048201526001600160a01b03848116602483015260448201849052909116906323b872dd90606401600060405180830381600087803b1580156104c457600080fd5b505af11580156104d8573d6000803e3d6000fd5b5050505061050c3383836040518060400160405280600c81526020016b2819282faa2920a729a322a960a11b81525061078f565b5050565b6040805160a081018252600080825260208201819052918101829052606080820152608081019190915260035482106105845760405162461bcd60e51b8152602060048201526016602482015275125b9d985b1a59081d1c985b9cd858dd1a5bdb88125160521b6044820152606401610271565b6003828154811061059757610597610ec9565b60009182526020918290206040805160a081018252600590930290910180546001600160a01b039081168452600182015416938301939093526002830154908201526003820180549192916060840191906105f190610edf565b80601f016020809104026020016040519081016040528092919081815260200182805461061d90610edf565b801561066a5780601f1061063f5761010080835404028352916020019161066a565b820191906000526020600020905b81548152906001019060200180831161064d57829003601f168201915b505050505081526020016004820154815250509050919050565b6003818154811061069457600080fd5b600091825260209091206005909102018054600182015460028301546003840180546001600160a01b0394851696509290931693909290916106d590610edf565b80601f016020809104026020016040519081016040528092919081815260200182805461070190610edf565b801561074e5780601f106107235761010080835404028352916020019161074e565b820191906000526020600020905b81548152906001019060200180831161073157829003601f168201915b5050505050908060040154905085565b6004602052816000526040600020818154811061077a57600080fd5b90600052602060002001600091509150505481565b600380546040805160a0810182526001600160a01b03808916825287811660208301908152928201878152606083018781524260808501526001860187556000969096528251600586027fc2575a0e9e593c00f959f8c92f12db2869c3395a3b0502d05e2516446f71f85b810180549285166001600160a01b031993841617815595517fc2575a0e9e593c00f959f8c92f12db2869c3395a3b0502d05e2516446f71f85c8201805491909516921691909117909255517fc2575a0e9e593c00f959f8c92f12db2869c3395a3b0502d05e2516446f71f85d8201559351929390927fc2575a0e9e593c00f959f8c92f12db2869c3395a3b0502d05e2516446f71f85e9091019061089e9082610f68565b50608091909101516004918201556001600160a01b038087166000818152602093845260408120805460018101825590825293902090920183905585161461090c576001600160a01b0384166000908152600460209081526040822080546001810182559083529120018190555b836001600160a01b0316856001600160a01b0316827fd51b6494aabf47a93cb3b5a5d47b61dd5230a83f7cb254851dff3e7fa3917a1b8686604051610952929190611027565b60405180910390a45050505050565b6001600160a01b0381166000908152600460209081526040918290208054835181840281018401909452808452606093928301828280156109c157602002820191906000526020600020905b8154815260200190600101908083116109ad575b50505050509050919050565b60025460405163026c098960e51b81523360048201526001600160a01b0390911690634d81312090602401602060405180830381865afa158015610a15573d6000803e3d6000fd5b505050506040513d601f19601f82011682018060405250810190610a399190610e8e565b610a7d5760405162461bcd60e51b8152602060048201526015602482015274155cd95c881b9bdd0812d650c81d995c9a599a5959605a1b6044820152606401610271565b600154604051631d3ba0bf60e21b81526001600160a01b038381166004830152909116906374ee82fc90602401602060405180830381865afa158015610ac7573d6000803e3d6000fd5b505050506040513d601f19601f82011682018060405250810190610aeb9190610e8e565b610b275760405162461bcd60e51b815260206004820152600d60248201526c125b9d985b1a59081859d95b9d609a1b6044820152606401610271565b600154604051632098244360e21b8152336004820152602481018490526001600160a01b0390911690638260910c90604401600060405180830381600087803b158015610b7357600080fd5b505af1158015610b87573d6000803e3d6000fd5b5050505061050c3382846040518060400160405280600a81526020016915d2551211149055d05360b21b81525061078f565b80356001600160a01b0381168114610bd057600080fd5b919050565b60008060408385031215610be857600080fd5b610bf183610bb9565b946020939093013593505050565b600060208284031215610c1157600080fd5b5035919050565b6000815180845260005b81811015610c3e57602081850181015186830182015201610c22565b506000602082860101526020601f19601f83011685010191505092915050565b6020815260018060a01b03825116602082015260018060a01b036020830151166040820152604082015160608201526000606083015160a06080840152610ca860c0840182610c18565b9050608084015160a08401528091505092915050565b6001600160a01b038681168252851660208201526040810184905260a060608201819052600090610cf190830185610c18565b90508260808301529695505050505050565b634e487b7160e01b600052604160045260246000fd5b60008060008060808587031215610d2f57600080fd5b610d3885610bb9565b9350610d4660208601610bb9565b925060408501359150606085013567ffffffffffffffff811115610d6957600080fd5b8501601f81018713610d7a57600080fd5b803567ffffffffffffffff811115610d9457610d94610d03565b604051601f8201601f19908116603f0116810167ffffffffffffffff81118282101715610dc357610dc3610d03565b604052818152828201602001891015610ddb57600080fd5b8160208401602083013760006020838301015280935050505092959194509250565b600060208284031215610e0f57600080fd5b610e1882610bb9565b9392505050565b602080825282518282018190526000918401906040840190835b81811015610e57578351835260209384019390920191600101610e39565b509095945050505050565b60008060408385031215610e7557600080fd5b82359150610e8560208401610bb9565b90509250929050565b600060208284031215610ea057600080fd5b81518015158114610e1857600080fd5b600060208284031215610ec257600080fd5b5051919050565b634e487b7160e01b600052603260045260246000fd5b600181811c90821680610ef357607f821691505b602082108103610f1357634e487b7160e01b600052602260045260246000fd5b50919050565b601f821115610f6357806000526020600020601f840160051c81016020851015610f405750805b601f840160051c820191505b81811015610f605760008155600101610f4c565b50505b505050565b815167ffffffffffffffff811115610f8257610f82610d03565b610f9681610f908454610edf565b84610f19565b6020601f821160018114610fca5760008315610fb25750848201515b600019600385901b1c1916600184901b178455610f60565b600084815260208120601f198516915b82811015610ffa5787850151825560209485019460019092019101610fda565b50848210156110185786840151600019600387901b60f8161c191681555b50505050600190811b01905550565b8281526040602082015260006110406040830184610c18565b94935050505056fea2646970667358221220c9952e034d0cc77053ca73efef3d6120bbbf57dfea725b47fd2b098a381183ec64736f6c634300081c0033",
  "linkReferences": {},
  "deployedLinkReferences": {}
}