{
  "_format": "hh-sol-artifact-1",
  "contractName": "KYCContract",
  "sourceName": "contracts/KYCContract.sol",
  "abi": [
    {
      "inputs": [],
      "stateMutability": "nonpayable",
      "type": "constructor"
    },
    {
      "anonymous": false,
      "inputs": [
        {
          "indexed": true,
          "internalType": "address",
          "name": "user",
          "type": "address"
        }
      ],
      "name": "KYCRevoked",
      "type": "event"
    },
    {
      "anonymous": false,
      "inputs": [
        {
          "indexed": true,
          "internalType": "address",
          "name": "user",
          "type": "address"
        },
        {
          "indexed": false,
          "internalType": "bytes32",
          "name": "kycHash",
          "type": "bytes32"
        }
      ],
      "name": "KYCSubmitted",
      "type": "event"
    },
    {
      "anonymous": false,
      "inputs": [
        {
          "indexed": true,
          "internalType": "address",
          "name": "user",
          "type": "address"
        }
      ],
      "name": "KYCVerified",
      "type": "event"
    },
    {
      "inputs": [
        {
          "internalType": "address",
          "name": "",
          "type": "address"
        }
      ],
      "name": "kycHashes",
      "outputs": [
        {
          "internalType": "bytes32",
          "name": "",
          "type": "bytes32"
        }
      ],
      "stateMutability": "view",
      "type": "function"
    },
    {
      "inputs": [
        {
          "internalType": "address",
          "name": "",
          "type": "address"
        }
      ],
      "name": "kycVerified",
      "outputs": [
        {
          "internalType": "bool",
          "name": "",
          "type": "bool"
        }
      ],
      "stateMutability": "view",
      "type": "function"
    },
    {
      "inputs": [],
      "name": "owner",
      "outputs": [
        {
          "internalType": "address",
          "name": "",
          "type": "address"
        }
      ],
      "stateMutability": "view",
      "type": "function"
    },
    {
      "inputs": [
        {
          "internalType": "address",
          "name": "user",
          "type": "address"
        }
      ],
      "name": "revokeKYC",
      "outputs": [],
      "stateMutability": "nonpayable",
      "type": "function"
    },
    {
      "inputs": [
        {
          "internalType": "address",
          "name": "user",
          "type": "address"
        },
        {
          "internalType": "bytes32",
          "name": "kycHash",
          "type": "bytes32"
        }
      ],
      "name": "submitKYC",
      "outputs": [],
      "stateMutability": "nonpayable",
      "type": "function"
    },
    {
      "inputs": [
        {
          "internalType": "address",
          "name": "user",
          "type": "address"
        }
      ],
      "name": "verifyUser",
      "outputs": [
        {
          "internalType": "bool",
          "name": "",
          "type": "bool"
        }
      ],
      "stateMutability": "view",
      "type": "function"
    }
  ],
  "bytecode": "0x6080604052348015600f57600080fd5b50600080546001600160a01b0319163317905561039e806100316000396000f3fe608060405234801561001057600080fd5b50600436106100625760003560e01c80631556c7231461006757806339ba645b1461009a5780634d813120146100af5780634e7039be146100eb5780638da5cb5b146100fe578063a5410a6614610129575b600080fd5b61008761007536600461031c565b60026020526000908152604090205481565b6040519081526020015b60405180910390f35b6100ad6100a836600461031c565b61014c565b005b6100db6100bd36600461031c565b6001600160a01b031660009081526001602052604090205460ff1690565b6040519015158152602001610091565b6100ad6100f936600461033e565b6101e1565b600054610111906001600160a01b031681565b6040516001600160a01b039091168152602001610091565b6100db61013736600461031c565b60016020526000908152604090205460ff1681565b6000546001600160a01b031633146101985760405162461bcd60e51b815260206004820152600a60248201526927b7363c9037bbb732b960b11b60448201526064015b60405180910390fd5b6001600160a01b038116600081815260016020526040808220805460ff19169055517ffb4ca6a2470de95e9f648557fae63380f22c4b760bd27b0571caf5977a30278a9190a250565b6001600160a01b0382166102295760405162461bcd60e51b815260206004820152600f60248201526e496e76616c6964206164647265737360881b604482015260640161018f565b806102655760405162461bcd60e51b815260206004820152600c60248201526b092dcecc2d8d2c840d0c2e6d60a31b604482015260640161018f565b6001600160a01b0382166000818152600260209081526040808320859055600180835292819020805460ff191690931790925590518381527f9c350cbd10f7d666123fb659f7ba90bd03021217f38d91b584cf8b93d87a618f910160405180910390a26040516001600160a01b038316907f65c84ee842eafc291d1272a6e3d10f8c454c4288e63f5db3f7be2b3012f321a990600090a25050565b80356001600160a01b038116811461031757600080fd5b919050565b60006020828403121561032e57600080fd5b61033782610300565b9392505050565b6000806040838503121561035157600080fd5b61035a83610300565b94602093909301359350505056fea26469706673582212209b22df89a80db2b64bc6eee5c524807a10596a089edd89ee4dc1d6f25c3fca7564736f6c634300081c0033",
  "linkReferences": {},
  "deployedLinkReferences": {}
}