{
  "_format": "hh-sol-artifact-1",
  "contractName": "AgentServicesContract",
  "sourceName": "contracts/AgentServicesContract.sol",
  "abi": [
    {
      "inputs": [
        {
          "internalType": "address",
          "name": "_walletContract",
          "type": "address"
        },
        {
          "internalType": "address",
          "name": "_kycContract",
          "type": "address"
        }
      ],
      "stateMutability": "nonpayable",
      "type": "constructor"
    },
    {
      "anonymous": false,
      "inputs": [
        {
          "indexed": true,
          "internalType": "address",
          "name": "agent",
          "type": "address"
        }
      ],
      "name": "AgentRegistered",
      "type": "event"
    },
    {
      "anonymous": false,
      "inputs": [
        {
          "indexed": true,
          "internalType": "address",
          "name": "agent",
          "type": "address"
        },
        {
          "indexed": true,
          "internalType": "address",
          "name": "user",
          "type": "address"
        },
        {
          "indexed": false,
          "internalType": "uint256",
          "name": "amount",
          "type": "uint256"
        }
      ],
      "name": "TopUp",
      "type": "event"
    },
    {
      "anonymous": false,
      "inputs": [
        {
          "indexed": true,
          "internalType": "address",
          "name": "agent",
          "type": "address"
        },
        {
          "indexed": true,
          "internalType": "address",
          "name": "user",
          "type": "address"
        },
        {
          "indexed": false,
          "internalType": "uint256",
          "name": "amount",
          "type": "uint256"
        }
      ],
      "name": "WithdrawalProcessed",
      "type": "event"
    },
    {
      "inputs": [],
      "name": "kycContract",
      "outputs": [
        {
          "internalType": "contract IKYC",
          "name": "",
          "type": "address"
        }
      ],
      "stateMutability": "view",
      "type": "function"
    },
    {
      "inputs": [],
      "name": "owner",
      "outputs": [
        {
          "internalType": "address",
          "name": "",
          "type": "address"
        }
      ],
      "stateMutability": "view",
      "type": "function"
    },
    {
      "inputs": [
        {
          "internalType": "address",
          "name": "user",
          "type": "address"
        },
        {
          "internalType": "uint256",
          "name": "amount",
          "type": "uint256"
        }
      ],
      "name": "processWithdrawal",
      "outputs": [],
      "stateMutability": "nonpayable",
      "type": "function"
    },
    {
      "inputs": [
        {
          "internalType": "address",
          "name": "agent",
          "type": "address"
        }
      ],
      "name": "registerAgent",
      "outputs": [],
      "stateMutability": "nonpayable",
      "type": "function"
    },
    {
      "inputs": [
        {
          "internalType": "address",
          "name": "",
          "type": "address"
        }
      ],
      "name": "registeredAgents",
      "outputs": [
        {
          "internalType": "bool",
          "name": "",
          "type": "bool"
        }
      ],
      "stateMutability": "view",
      "type": "function"
    },
    {
      "inputs": [
        {
          "internalType": "address",
          "name": "user",
          "type": "address"
        },
        {
          "internalType": "uint256",
          "name": "amount",
          "type": "uint256"
        }
      ],
      "name": "topUp",
      "outputs": [],
      "stateMutability": "nonpayable",
      "type": "function"
    },
    {
      "inputs": [],
      "name": "walletContract",
      "outputs": [
        {
          "internalType": "contract WalletContract",
          "name": "",
          "type": "address"
        }
      ],
      "stateMutability": "view",
      "type": "function"
    }
  ],
  "bytecode": "0x6080604052348015600f57600080fd5b5060405161094e38038061094e833981016040819052602c916082565b600080546001600160a01b03199081163317909155600180546001600160a01b039485169083161790556002805492909316911617905560b0565b80516001600160a01b0381168114607d57600080fd5b919050565b60008060408385031215609457600080fd5b609b836067565b915060a7602084016067565b90509250929050565b61088f806100bf6000396000f3fe608060405234801561001057600080fd5b506004361061007d5760003560e01c80638260910c1161005b5780638260910c146100fa5780638da5cb5b1461010d578063d0ed5c2f14610120578063d6f7ddf91461013357600080fd5b8063306b9bb9146100825780636d3123eb1461009757806374ee82fc146100c7575b600080fd5b6100956100903660046107d2565b610146565b005b6002546100aa906001600160a01b031681565b6040516001600160a01b0390911681526020015b60405180910390f35b6100ea6100d53660046107d2565b60036020526000908152604090205460ff1681565b60405190151581526020016100be565b6100956101083660046107f4565b610295565b6000546100aa906001600160a01b031681565b6001546100aa906001600160a01b031681565b6100956101413660046107f4565b610583565b6000546001600160a01b031633146101925760405162461bcd60e51b815260206004820152600a60248201526927b7363c9037bbb732b960b11b60448201526064015b60405180910390fd5b6001600160a01b0381166101e05760405162461bcd60e51b8152602060048201526015602482015274496e76616c6964206167656e74206164647265737360581b6044820152606401610189565b6001600160a01b03811660009081526003602052604090205460ff16156102495760405162461bcd60e51b815260206004820152601860248201527f4167656e7420616c7265616479207265676973746572656400000000000000006044820152606401610189565b6001600160a01b038116600081815260036020526040808220805460ff19166001179055517f82d0829d9d481e4cb9913897f9b9c903271c4db68c7b3324071d2a7e3b2c5ff09190a250565b3360009081526003602052604090205460ff166102ed5760405162461bcd60e51b81526020600482015260166024820152754f6e6c792072656769737465726564206167656e747360501b6044820152606401610189565b6001600160a01b03821661033a5760405162461bcd60e51b8152602060048201526014602482015273496e76616c69642075736572206164647265737360601b6044820152606401610189565b6000811161037b5760405162461bcd60e51b815260206004820152600e60248201526d125b9d985b1a5908185b5bdd5b9d60921b6044820152606401610189565b60025460405163026c098960e51b81526001600160a01b03848116600483015290911690634d81312090602401602060405180830381865afa1580156103c5573d6000803e3d6000fd5b505050506040513d601f19601f820116820180604052508101906103e9919061081e565b61042d5760405162461bcd60e51b8152602060048201526015602482015274155cd95c881b9bdd0812d650c81d995c9a599a5959605a1b6044820152606401610189565b60015460405163f8b2cb4f60e01b81526001600160a01b0384811660048301528392169063f8b2cb4f90602401602060405180830381865afa158015610477573d6000803e3d6000fd5b505050506040513d601f19601f8201168201806040525081019061049b9190610840565b10156104e05760405162461bcd60e51b8152602060048201526014602482015273496e73756666696369656e742062616c616e636560601b6044820152606401610189565b600154604051632e1a7d4d60e01b8152600481018390526001600160a01b0390911690632e1a7d4d90602401600060405180830381600087803b15801561052657600080fd5b505af115801561053a573d6000803e3d6000fd5b50506040518381526001600160a01b03851692503391507fcd1fce47d5ad89dd70b04c75bd6bdb8114d4d4ff7b4393f9fb5937e733ba9582906020015b60405180910390a35050565b3360009081526003602052604090205460ff166105db5760405162461bcd60e51b81526020600482015260166024820152754f6e6c792072656769737465726564206167656e747360501b6044820152606401610189565b6001600160a01b0382166106285760405162461bcd60e51b8152602060048201526014602482015273496e76616c69642075736572206164647265737360601b6044820152606401610189565b600081116106695760405162461bcd60e51b815260206004820152600e60248201526d125b9d985b1a5908185b5bdd5b9d60921b6044820152606401610189565b60025460405163026c098960e51b81526001600160a01b03848116600483015290911690634d81312090602401602060405180830381865afa1580156106b3573d6000803e3d6000fd5b505050506040513d601f19601f820116820180604052508101906106d7919061081e565b61071b5760405162461bcd60e51b8152602060048201526015602482015274155cd95c881b9bdd0812d650c81d995c9a599a5959605a1b6044820152606401610189565b60015460405163b6b55f2560e01b8152600481018390526001600160a01b039091169063b6b55f2590602401600060405180830381600087803b15801561076157600080fd5b505af1158015610775573d6000803e3d6000fd5b50506040518381526001600160a01b03851692503391507f57939c7190667481229eac6b5843a99e86f4981171ad74ddf21c5b51e9fc1e0c90602001610577565b80356001600160a01b03811681146107cd57600080fd5b919050565b6000602082840312156107e457600080fd5b6107ed826107b6565b9392505050565b6000806040838503121561080757600080fd5b610810836107b6565b946020939093013593505050565b60006020828403121561083057600080fd5b815180151581146107ed57600080fd5b60006020828403121561085257600080fd5b505191905056fea2646970667358221220b505b2921ce7bc01492a2a2a0fe41cb6370f50b6fc3d11fb1dda45bc4f6ce91364736f6c634300081c0033",
  "linkReferences": {},
  "deployedLinkReferences": {}
}